:1010230020004A616E00466562004D6172004170A6
:1010330072004D6179004A756E004A756C00417506
:101043006700536570004F637400446563004E6F1F
:02105300760025
:100EF40010213F065B4F666D7D077F6F777C395EFF
:100F04007971095EFF7FBFDFEFF7FBFDFE0C491F20
:100F14001C1F1E1F1E1F1F1E1F1E1F013300013416
:100F240000017000017100016E02016F01016D008A
:100F3400013200095530393A32363A3032000C3C2D
:0C0F440041756720323520323031370013
:03112800C2A3223D
:100E3100053320A302D2A3E533640A7051F53305CB
:100E410034E53464067047F5340570E570640A7062
:100E51003DF5700571E57164067033F571056E122B
:100E61001128E56FC39402500CE56EB40A07E4F54E
:100E71006E056F8019E56FB40214E56EB4040FE4DA
:100E8100F56EF56F056DE56DB40703E4F56DE4FEF0
:020E9100FF223E
:0C1107007F017E267D82DDFEDEFADFF631
:0111130022B9
:0610D200FD7E001210A1DA
:0C10D8007F017E8E7D02DDFEDEFADFF679
:0110E40022E9
:100FEB008D10AB07AA06E51064027024EB54037056
:100FFB000AFC7D64120800ED4C700FAE02AF037C4F
:10100B00017D90120800ED4C70037F1D227F1C2286
:08101B0074482510F8E6FF22DD
:080C80008E088F098D0A8B0B11
:100C8800E4F50CF50D750E07750F6CC3E50F9509A6
:100C9800E50E95085041E50F5403700EAE0EAF0FE8
:100CA800FC7D64120800ED4C700FAE0EAF0F7C0196
:100CB8007D90120800ED4C70067E017F6E80047EE8
:100CC800017F6DEF250DF50DEE350CF50C050FE5E3
:100CD8000F70B8050E80B4750E00750F01C3E50FCF
:100CE800950AE50E9400501DAD0FAF09AE08120F1E
:100CF800EBEF250DF50DE4350CF50C050FE50F7040
:100D0800DC050E80D8E50B250DF50DE4350CF50C4A
:0C0D1800FEAF0D7C007D07120800AF0547
:010D240022AC
:100A5A00750BFF750C10750D237B007A00793C121B
:100A6A000DB18B6A8A6B896C750BFF750C10750D4D
:100A7A00237B007A007900120DB18B678A68896935
:100A8A00120BD28F48750BFF750C10750D237B0066
:100A9A007A007900120DB18B728A738974120BD2A3
:100AAA008E358F36A86CAC6BAD6A7BFF7A107925D0
:100ABA001209D3EF7006753101020BC6A86CAC6B34
:100ACA00AD6A7BFF7A1079291209D3EF7006753166
:100ADA0002020BC6A86CAC6BAD6A7BFF7A10792D4B
:100AEA001209D3EF7006753103020BC6A86CAC6B02
:100AFA00AD6A7BFF7A1079311209D3EF700675312E
:100B0A0004020BC6A86CAC6BAD6A7BFF7A10793510
:100B1A001209D3EF7006753105020BC6A86CAC6BCF
:100B2A00AD6A7BFF7A1079391209D3EF70067531F5
:100B3A0006020BC6A86CAC6BAD6A7BFF7A10793DD6
:100B4A001209D3EF70057531078071A86CAC6BADD3
:100B5A006A7BFF7A1079411209D3EF700575310863
:100B6A00805AA86CAC6BAD6A7BFF7A107945120982
:100B7A00D3EF70057531098043A86CAC6BAD6A7B05
:100B8A00FF7A1079491209D3EF700575310A802C62
:100B9A00A86CAC6BAD6A7BFF7A10794D1209D3EF62
:100BAA00700575310B8015A86CAC6BAD6A7BFF7A4A
:100BBA001079511209D3EF700375310CAB48AD317E
:080BCA00AF36AE35120C80229B
:10105500E55524D0F56FE55624D0F56EE55824D036
:10106500F571E55924D0F570E55B24D0F534E55CE0
:0A10750024D0F533120A5A8F6D22C1
:1010A100D2A074212DF8E6F580C2A07580FFD2A1EF
:0A10B100745E2FF8E6F580C2A1225C
:100FAE00E56FFD7C007F081210D3E56E7F071210EF
:100FBE00D2E5717F061210D2E570FD7F051210D3B7
:100FCE00E534FD7F041210D3E533FD7F031210D3F9
:0D0FDE00E56DFD7F017E001210A10210D80C
:10107F00D2AAD288D28AD2A9D2AB758961E4F58A75
:10108F00758C4C758DF7758BF7D28CD28ED2AFC213
:02109F00B52278
:03000B0002111FC0
:09111F00B2B5758C3C758AB03242
:03001B000210BB15
:1010BB00C0E0C0D075D000C006C007120E31D007FB
:0710CB00D006D0D0D0E032C6
:0300030002112BBC
:03112B00B28C3251
:0B11140012107F121055120FAE80FB6E
:03000000020D25C9
:0C0D2500787FE4F6D8FD758174020D6C37
:10080000BC000BBE0029EF8DF084FFADF022E4CCDC
:10081000F875F008EF2FFFEE33FEEC33FCEE9DECA5
:10082000984005FCEE9DFE0FD5F0E9E4CEFD22EDEB
:10083000F8F5F0EE8420D21CFEADF075F008EF2F35
:10084000FFED33FD4007985006D5F0F222C398FD26
:050850000FD5F0EA22C3
:10085500E3F5F009E208B5F06D606B80F3E3F5F0C0
:1008650009E608B5F060605E80F387F009E608B533
:10087500F054605280F487F009E208B5F04860460C
:1008850080F488828C8387F009E0A3B5F038603660
:1008950080F488828C8387F009E493A3B5F0276000
:1008A5002580F388828C83E3F5F009E0A3B5F01683
:1008B500601480F388828C83E3F5F009E493A3B593
:1008C500F004600280F2020980808580E7808E80D6
:1008D500D2803C8015806C807E809B80B5808B802B
:1008E500A1804F8070803A02098C89828A83ECFA54
:1008F500E493F5F0A3C8C582C8CCC583CCE493A323
:10090500C8C582C8CCC583CCB5F070606E80E1895E
:10091500828A83E493F5F0A3E208B5F05E605C801B
:10092500F289828A83E0F5F0A3E608B5F04D604BC5
:1009350080F389828A83E0F5F0A3E208B5F03C6094
:100945003A80F389828A83E493F5F0A3E608B5F04B
:100955002A602880F2805389828A83ECFAE493F531
:10096500F0A3C8C582C8CCC583CCE0A3C8C582C8DE
:10097500CCC583CCB5F004600280E27FFFB5F00200
:100985000F2240027F012289828A83ECFAE0F5F08A
:10099500A3C8C582C8CCC583CCE0A3C8C582C8CCD2
:1009A500C583CCB5F0D560D380E389828A83ECFA20
:1009B500E0F5F0A3C8C582C8CCC583CCE493A3C831
:1009C500C582C8CCC583CCB5F0B160AF80E288F0F4
:1009D500ED2402B4040050A3F582EB2402B4040014
:0B09E500509923234582239008CE7315
:100DB1008B088A09890AE94A4B7009851708851841
:100DC1000985190AE50A450945087002802C850B39
:100DD10011850C12850D13AB08AA09A90A120E93ED
:100DE100EF250AF50AEE3509F509AB08FAA90A1249
:100DF10009F0700AF517F518F519FBFAF922850BB8
:100E010011850C12850D13AB08AA09A90A120F51FD
:100E11008B178A188919EA494B600EE4120A0904F2
:100E21002519F519E43518F518AB08AA09A90A22FC
:100BD2008B088A09890AAB08AA09A90A1209F0FF37
:100BE2001210E5500D7401250AF50AE43509F509DC
:100BF20080E4D200AB08AA09A90A1209F0FF642B0B
:100C02006004EFB42D1BAB08050AE50AAA097002BD
:100C1200050914F91209F0642D6003D38001C3920F
:100C220000E4F50BF50CAB08AA09A90A1209F0FFBA
:100C32001210F85036AB08AA09A90A1209F0FF33BC
:100C420095E0FEEF24D0FBEE34FFFAAE0BAF0C7C46
:100C5200007D0A120A1BEF2BF50CEE3AF50B74011C
:100C6200250AF50AE43509F50980BB300006AE0B0A
:0E0C7200AF0C8009C3E4950CFFE4950BFE2245
:100D3100021114E493A3F8E493A34003F68001F2B3
:100D410008DFF48029E493A3F85407240CC8C333C3
:100D5100C4540F4420C8834004F456800146F6DF92
:100D6100E4800B0102040810204080900EF4E47E20
:100D7100019360BCA3FF543F30E509541FFEE49387
:100D8100A360010ECF54C025E060A840B8E493A34E
:100D9100FAE493A3F8E493A3C8C582C8CAC583CA79
:100DA100F0A3C8C582C8CAC583CADFE9DEE780BE31
:010F500000A0
:1009F000BB010689828A83E0225002E722BBFE0205
:090A0000E32289828A83E4932237
:100A0900BB010689828A83F0225002F722BBFE01CC
:020A1900F322C6
:100A1B00EF8DF0A4A8F0CF8CF0A428CE8DF0A42EEF
:020A2B00FE22A9
:0F10F800EFC394304007EF943A50028001C322B7
:1010E500EFC394094005EF940E4003BF2003D3805E
:0310F50001C32212
:100E93008B0E8A0F8910E4F514F515E4FEFFAB11F0
:100EA300AA12A9138F828E83120A2DFD6013AB0E33
:100EB300AA0FA9101209F06D60070FBF00010E8081
:100EC300DDAB11AA12A9138F828E83120A2D700231
:100ED300801A0515E51570020514AB0E0510E51013
:100EE3007002050FF9AA0F1209F070AFAE14AF1517
:010EF30022DC
:100F51008B0E8A0F8910851114851215851316AB16
:100F610014AA15A9161209F0FF6019AB0EAA0FA950
:100F7100101209F06F600D74012516F516E4351590
:100F8100F51580DBAB14AA15A9161209F06007ABA1
:100F91000EAA0FA91022AB0E0510E510AA0F7002C0
:0D0FA100050F14F91209F070ADFBFAF922EA
:100A2D00BB010CE58229F582E5833AF583E022507E
:100A3D0006E92582F8E622BBFE06E92582F8E222C8
:0D0A4D00E58229F582E5833AF583E49322E2
:00000001FF
